{
  "contractName": "MySecretDiary",
  "abi": [
    {
      "inputs": [
        {
          "internalType": "string",
          "name": "_date",
          "type": "string"
        },
        {
          "internalType": "string",
          "name": "_heading",
          "type": "string"
        },
        {
          "internalType": "string",
          "name": "_context",
          "type": "string"
        }
      ],
      "name": "writeDaySummary",
      "outputs": [
        {
          "internalType": "bool",
          "name": "",
          "type": "bool"
        }
      ],
      "stateMutability": "nonpayable",
      "type": "function"
    },
    {
      "inputs": [
        {
          "internalType": "string",
          "name": "_date",
          "type": "string"
        }
      ],
      "name": "readDaySummary",
      "outputs": [
        {
          "internalType": "string",
          "name": "heading",
          "type": "string"
        },
        {
          "internalType": "string",
          "name": "context",
          "type": "string"
        }
      ],
      "stateMutability": "view",
      "type": "function",
      "constant": true
    }
  ],
  "bytecode": "0x608060405234801561001057600080fd5b50610a9d806100206000396000f3fe608060405234801561001057600080fd5b50600436106100365760003560e01c806396ea418b1461003b578063e641c0481461006b575b600080fd5b610055600480360381019061005091906106a1565b61009c565b6040516100629190610763565b60405180910390f35b6100856004803603810190610080919061077e565b610229565b60405161009392919061084f565b60405180910390f35b60008073ffffffffffffffffffffffffffffffffffffffff163373ffffffffffffffffffffffffffffffffffffffff160361010c576040517f08c379a0000000000000000000000000000000000000000000000000000000008152600401610103906108d2565b60405180910390fd5b826000803373ffffffffffffffffffffffffffffffffffffffff1673ffffffffffffffffffffffffffffffffffffffff16815260200190815260200160002085604051610159919061092e565b908152602001604051809103902060405161017390610991565b908152602001604051809103902090805190602001906101949291906104a4565b50816000803373ffffffffffffffffffffffffffffffffffffffff1673ffffffffffffffffffffffffffffffffffffffff168152602001908152602001600020856040516101e2919061092e565b90815260200160405180910390206040516101fc906109f2565b9081526020016040518091039020908051906020019061021d9291906104a4565b50600190509392505050565b606080600073ffffffffffffffffffffffffffffffffffffffff163373ffffffffffffffffffffffffffffffffffffffff160361029b576040517f08c379a0000000000000000000000000000000000000000000000000000000008152600401610292906108d2565b60405180910390fd5b6000803373ffffffffffffffffffffffffffffffffffffffff1673ffffffffffffffffffffffffffffffffffffffff168152602001908152602001600020836040516102e7919061092e565b908152602001604051809103902060405161030190610991565b90815260200160405180910390206000803373ffffffffffffffffffffffffffffffffffffffff1673ffffffffffffffffffffffffffffffffffffffff1681526020019081526020016000208460405161035b919061092e565b9081526020016040518091039020604051610375906109f2565b908152602001604051809103902081805461038f90610a36565b80601f01602080910402602001604051908101604052809291908181526020018280546103bb90610a36565b80156104085780601f106103dd57610100808354040283529160200191610408565b820191906000526020600020905b8154815290600101906020018083116103eb57829003601f168201915b5050505050915080805461041b90610a36565b80601f016020809104026020016040519081016040528092919081815260200182805461044790610a36565b80156104945780601f1061046957610100808354040283529160200191610494565b820191906000526020600020905b81548152906001019060200180831161047757829003601f168201915b5050505050905091509150915091565b8280546104b090610a36565b90600052602060002090601f0160209004810192826104d25760008555610519565b82601f106104eb57805160ff1916838001178555610519565b82800160010185558215610519579182015b828111156105185782518255916020019190600101906104fd565b5b509050610526919061052a565b5090565b5b8082111561054357600081600090555060010161052b565b5090565b6000604051905090565b600080fd5b600080fd5b600080fd5b600080fd5b6000601f19601f8301169050919050565b7f4e487b7100000000000000000000000000000000000000000000000000000000600052604160045260246000fd5b6105ae82610565565b810181811067ffffffffffffffff821117156105cd576105cc610576565b5b80604052505050565b60006105e0610547565b90506105ec82826105a5565b919050565b600067ffffffffffffffff82111561060c5761060b610576565b5b61061582610565565b9050602081019050919050565b82818337600083830152505050565b600061064461063f846105f1565b6105d6565b9050828152602081018484840111156106605761065f610560565b5b61066b848285610622565b509392505050565b600082601f8301126106885761068761055b565b5b8135610698848260208601610631565b91505092915050565b6000806000606084860312156106ba576106b9610551565b5b600084013567ffffffffffffffff8111156106d8576106d7610556565b5b6106e486828701610673565b935050602084013567ffffffffffffffff81111561070557610704610556565b5b61071186828701610673565b925050604084013567ffffffffffffffff81111561073257610731610556565b5b61073e86828701610673565b9150509250925092565b60008115159050919050565b61075d81610748565b82525050565b60006020820190506107786000830184610754565b92915050565b60006020828403121561079457610793610551565b5b600082013567ffffffffffffffff8111156107b2576107b1610556565b5b6107be84828501610673565b91505092915050565b600081519050919050565b600082825260208201905092915050565b60005b838110156108015780820151818401526020810190506107e6565b83811115610810576000848401525b50505050565b6000610821826107c7565b61082b81856107d2565b935061083b8185602086016107e3565b61084481610565565b840191505092915050565b600060408201905081810360008301526108698185610816565b9050818103602083015261087d8184610816565b90509392505050565b7f43616c6c2069742066726f6d206120456e642055736572204163636f756e7400600082015250565b60006108bc601f836107d2565b91506108c782610886565b602082019050919050565b600060208201905081810360008301526108eb816108af565b9050919050565b600081905092915050565b6000610908826107c7565b61091281856108f2565b93506109228185602086016107e3565b80840191505092915050565b600061093a82846108fd565b915081905092915050565b7f68656164696e6700000000000000000000000000000000000000000000000000600082015250565b600061097b6007836108f2565b915061098682610945565b600782019050919050565b600061099c8261096e565b9150819050919050565b7f636f6e7465787400000000000000000000000000000000000000000000000000600082015250565b60006109dc6007836108f2565b91506109e7826109a6565b600782019050919050565b60006109fd826109cf565b9150819050919050565b7f4e487b7100000000000000000000000000000000000000000000000000000000600052602260045260246000fd5b60006002820490506001821680610a4e57607f821691505b602082108103610a6157610a60610a07565b5b5091905056fea264697066735822122036cf6d7b029167fe170039bd1257b383073802740b87955030e9f12c16fbefbf64736f6c634300080e0033",
  "immutableReferences": {},
  "source": "// SPDX-License-Identifier: MIT\npragma solidity >=0.4.22 <0.9.0;\n\ncontract MySecretDiary {\n    // user account => public key => list of articles\n\n    // key : value\n\n    //          vijayPK (address) : {\n    //                      date1 (string) : { \n    //                              heading : heading, \n    //                              context : context \n    //                            },           \n    //                      date2 : { heading : heading, context : context }, \n    //                      date3 : { heading : heading, context : context },\n    //                      date4 : { heading : heading, context : context },\n    //          }\n    //\n    // considering: in 1 day, 1 person will write only 1 article\n\n    mapping(address => mapping(string => mapping( string => string ))) diary;\n\n    // function to write data on the smart contract\n    function writeDaySummary(string memory _date, string memory _heading, string memory _context) public returns(bool){\n        // write <= msg.sender\n        require(msg.sender != address(0), \"Call it from a End User Account\");\n        diary[msg.sender][_date][\"heading\"] = _heading;\n        diary[msg.sender][_date][\"context\"] = _context;\n        return true;\n    }\n\n    // function to read data from the smart contract\n    function readDaySummary(string memory _date) public view returns (string memory heading, string memory context){\n        require(msg.sender != address(0), \"Call it from a End User Account\");\n        return (diary[msg.sender][_date][\"heading\"], diary[msg.sender][_date][\"context\"]);\n    }\n}",
  "sourcePath": "/Users/Tanuj.Sharma/Desktop/ImaginXP-Batch1-Blockchain/CapstoneProject/DayKeeper/TruffleProject/contracts/MySecretDiary.sol",
  "compiler": {
    "name": "solc",
    "version": "0.8.14+commit.80d49f37.Emscripten.clang"
  },
  "schemaVersion": "3.4.7",
  "updatedAt": "2023-01-29T05:41:05.240Z",
  "networkType": "ethereum",
  "devdoc": {
    "kind": "dev",
    "methods": {},
    "version": 1
  },
  "userdoc": {
    "kind": "user",
    "methods": {},
    "version": 1
  }
}